{
  "_format": "hh-sol-artifact-1",
  "contractName": "TheKreamerCollection",
  "sourceName": "contracts/TheKreamerCollection.sol",
  "abi": [
    {
      "inputs": [
        {
          "internalType": "string",
          "name": "contractName",
          "type": "string"
        },
        {
          "internalType": "string",
          "name": "contractSymbol",
          "type": "string"
        },
        {
          "internalType": "address",
          "name": "_vault",
          "type": "address"
        },
        {
          "internalType": "address",
          "name": "_signer",
          "type": "address"
        },
        {
          "internalType": "string",
          "name": "__baseTokenURI",
          "type": "string"
        },
        {
          "internalType": "string",
          "name": "_hiddenMetadataUri",
          "type": "string"
        },
        {
          "internalType": "address[]",
          "name": "_payees",
          "type": "address[]"
        },
        {
          "internalType": "uint256[]",
          "name": "_shares",
          "type": "uint256[]"
        }
      ],
      "stateMutability": "payable",
      "type": "constructor"
    },
    {
      "anonymous": false,
      "inputs": [
        {
          "indexed": true,
          "internalType": "address",
          "name": "owner",
          "type": "address"
        },
        {
          "indexed": true,
          "internalType": "address",
          "name": "approved",
          "type": "address"
        },
        {
          "indexed": true,
          "internalType": "uint256",
          "name": "tokenId",
          "type": "uint256"
        }
      ],
      "name": "Approval",
      "type": "event"
    },
    {
      "anonymous": false,
      "inputs": [
        {
          "indexed": true,
          "internalType": "address",
          "name": "owner",
          "type": "address"
        },
        {
          "indexed": true,
          "internalType": "address",
          "name": "operator",
          "type": "address"
        },
        {
          "indexed": false,
          "internalType": "bool",
          "name": "approved",
          "type": "bool"
        }
      ],
      "name": "ApprovalForAll",
      "type": "event"
    },
    {
      "anonymous": false,
      "inputs": [
        {
          "indexed": true,
          "internalType": "contract IERC20",
          "name": "token",
          "type": "address"
        },
        {
          "indexed": false,
          "internalType": "address",
          "name": "to",
          "type": "address"
        },
        {
          "indexed": false,
          "internalType": "uint256",
          "name": "amount",
          "type": "uint256"
        }
      ],
      "name": "ERC20PaymentReleased",
      "type": "event"
    },
    {
      "anonymous": false,
      "inputs": [
        {
          "indexed": true,
          "internalType": "address",
          "name": "previousOwner",
          "type": "address"
        },
        {
          "indexed": true,
          "internalType": "address",
          "name": "newOwner",
          "type": "address"
        }
      ],
      "name": "OwnershipTransferred",
      "type": "event"
    },
    {
      "anonymous": false,
      "inputs": [
        {
          "indexed": false,
          "internalType": "address",
          "name": "account",
          "type": "address"
        },
        {
          "indexed": false,
          "internalType": "uint256",
          "name": "shares",
          "type": "uint256"
        }
      ],
      "name": "PayeeAdded",
      "type": "event"
    },
    {
      "anonymous": false,
      "inputs": [
        {
          "indexed": false,
          "internalType": "address",
          "name": "from",
          "type": "address"
        },
        {
          "indexed": false,
          "internalType": "uint256",
          "name": "amount",
          "type": "uint256"
        }
      ],
      "name": "PaymentReceived",
      "type": "event"
    },
    {
      "anonymous": false,
      "inputs": [
        {
          "indexed": false,
          "internalType": "address",
          "name": "to",
          "type": "address"
        },
        {
          "indexed": false,
          "internalType": "uint256",
          "name": "amount",
          "type": "uint256"
        }
      ],
      "name": "PaymentReleased",
      "type": "event"
    },
    {
      "anonymous": false,
      "inputs": [
        {
          "indexed": true,
          "internalType": "address",
          "name": "from",
          "type": "address"
        },
        {
          "indexed": true,
          "internalType": "address",
          "name": "to",
          "type": "address"
        },
        {
          "indexed": true,
          "internalType": "uint256",
          "name": "tokenId",
          "type": "uint256"
        }
      ],
      "name": "Transfer",
      "type": "event"
    },
    {
      "inputs": [],
      "name": "Author",
      "outputs": [
        {
          "internalType": "string",
          "name": "",
          "type": "string"
        }
      ],
      "stateMutability": "view",
      "type": "function"
    },
    {
      "inputs": [],
      "name": "MAX_TOKENS",
      "outputs": [
        {
          "internalType": "uint256",
          "name": "",
          "type": "uint256"
        }
      ],
      "stateMutability": "view",
      "type": "function"
    },
    {
      "inputs": [],
      "name": "ProjectTeam",
      "outputs": [
        {
          "internalType": "string",
          "name": "",
          "type": "string"
        }
      ],
      "stateMutability": "view",
      "type": "function"
    },
    {
      "inputs": [
        {
          "internalType": "address",
          "name": "to",
          "type": "address"
        },
        {
          "internalType": "uint256",
          "name": "tokenId",
          "type": "uint256"
        }
      ],
      "name": "approve",
      "outputs": [],
      "stateMutability": "nonpayable",
      "type": "function"
    },
    {
      "inputs": [
        {
          "internalType": "address",
          "name": "owner",
          "type": "address"
        }
      ],
      "name": "balanceOf",
      "outputs": [
        {
          "internalType": "uint256",
          "name": "",
          "type": "uint256"
        }
      ],
      "stateMutability": "view",
      "type": "function"
    },
    {
      "inputs": [],
      "name": "baseExtension",
      "outputs": [
        {
          "internalType": "string",
          "name": "",
          "type": "string"
        }
      ],
      "stateMutability": "view",
      "type": "function"
    },
    {
      "inputs": [
        {
          "internalType": "uint256",
          "name": "quantity",
          "type": "uint256"
        }
      ],
      "name": "bogoMint",
      "outputs": [],
      "stateMutability": "payable",
      "type": "function"
    },
    {
      "inputs": [],
      "name": "bogoMintIsOpen",
      "outputs": [
        {
          "internalType": "bool",
          "name": "",
          "type": "bool"
        }
      ],
      "stateMutability": "view",
      "type": "function"
    },
    {
      "inputs": [
        {
          "internalType": "uint256",
          "name": "tokenId",
          "type": "uint256"
        }
      ],
      "name": "burn",
      "outputs": [],
      "stateMutability": "nonpayable",
      "type": "function"
    },
    {
      "inputs": [
        {
          "internalType": "uint256",
          "name": "tokenId",
          "type": "uint256"
        }
      ],
      "name": "getApproved",
      "outputs": [
        {
          "internalType": "address",
          "name": "",
          "type": "address"
        }
      ],
      "stateMutability": "view",
      "type": "function"
    },
    {
      "inputs": [],
      "name": "hiddenMetadataUri",
      "outputs": [
        {
          "internalType": "string",
          "name": "",
          "type": "string"
        }
      ],
      "stateMutability": "view",
      "type": "function"
    },
    {
      "inputs": [
        {
          "internalType": "address",
          "name": "owner",
          "type": "address"
        },
        {
          "internalType": "address",
          "name": "operator",
          "type": "address"
        }
      ],
      "name": "isApprovedForAll",
      "outputs": [
        {
          "internalType": "bool",
          "name": "",
          "type": "bool"
        }
      ],
      "stateMutability": "view",
      "type": "function"
    },
    {
      "inputs": [],
      "name": "maxWhitelistPassMints",
      "outputs": [
        {
          "internalType": "uint256",
          "name": "",
          "type": "uint256"
        }
      ],
      "stateMutability": "view",
      "type": "function"
    },
    {
      "inputs": [],
      "name": "name",
      "outputs": [
        {
          "internalType": "string",
          "name": "",
          "type": "string"
        }
      ],
      "stateMutability": "view",
      "type": "function"
    },
    {
      "inputs": [
        {
          "internalType": "uint256",
          "name": "quantity",
          "type": "uint256"
        }
      ],
      "name": "openMint",
      "outputs": [],
      "stateMutability": "payable",
      "type": "function"
    },
    {
      "inputs": [],
      "name": "owner",
      "outputs": [
        {
          "internalType": "address",
          "name": "",
          "type": "address"
        }
      ],
      "stateMutability": "view",
      "type": "function"
    },
    {
      "inputs": [
        {
          "internalType": "uint256",
          "name": "tokenId",
          "type": "uint256"
        }
      ],
      "name": "ownerOf",
      "outputs": [
        {
          "internalType": "address",
          "name": "",
          "type": "address"
        }
      ],
      "stateMutability": "view",
      "type": "function"
    },
    {
      "inputs": [
        {
          "internalType": "uint256",
          "name": "index",
          "type": "uint256"
        }
      ],
      "name": "payee",
      "outputs": [
        {
          "internalType": "address",
          "name": "",
          "type": "address"
        }
      ],
      "stateMutability": "view",
      "type": "function"
    },
    {
      "inputs": [],
      "name": "privateMintIsOpen",
      "outputs": [
        {
          "internalType": "bool",
          "name": "",
          "type": "bool"
        }
      ],
      "stateMutability": "view",
      "type": "function"
    },
    {
      "inputs": [],
      "name": "publicMintIsOpen",
      "outputs": [
        {
          "internalType": "bool",
          "name": "",
          "type": "bool"
        }
      ],
      "stateMutability": "view",
      "type": "function"
    },
    {
      "inputs": [],
      "name": "publicMintMaxLimit",
      "outputs": [
        {
          "internalType": "uint256",
          "name": "",
          "type": "uint256"
        }
      ],
      "stateMutability": "view",
      "type": "function"
    },
    {
      "inputs": [
        {
          "internalType": "address payable",
          "name": "account",
          "type": "address"
        }
      ],
      "name": "release",
      "outputs": [],
      "stateMutability": "nonpayable",
      "type": "function"
    },
    {
      "inputs": [
        {
          "internalType": "contract IERC20",
          "name": "token",
          "type": "address"
        },
        {
          "internalType": "address",
          "name": "account",
          "type": "address"
        }
      ],
      "name": "release",
      "outputs": [],
      "stateMutability": "nonpayable",
      "type": "function"
    },
    {
      "inputs": [
        {
          "internalType": "contract IERC20",
          "name": "token",
          "type": "address"
        },
        {
          "internalType": "address",
          "name": "account",
          "type": "address"
        }
      ],
      "name": "released",
      "outputs": [
        {
          "internalType": "uint256",
          "name": "",
          "type": "uint256"
        }
      ],
      "stateMutability": "view",
      "type": "function"
    },
    {
      "inputs": [
        {
          "internalType": "address",
          "name": "account",
          "type": "address"
        }
      ],
      "name": "released",
      "outputs": [
        {
          "internalType": "uint256",
          "name": "",
          "type": "uint256"
        }
      ],
      "stateMutability": "view",
      "type": "function"
    },
    {
      "inputs": [],
      "name": "renounceOwnership",
      "outputs": [],
      "stateMutability": "nonpayable",
      "type": "function"
    },
    {
      "inputs": [],
      "name": "revealed",
      "outputs": [
        {
          "internalType": "bool",
          "name": "",
          "type": "bool"
        }
      ],
      "stateMutability": "view",
      "type": "function"
    },
    {
      "inputs": [
        {
          "internalType": "address",
          "name": "from",
          "type": "address"
        },
        {
          "internalType": "address",
          "name": "to",
          "type": "address"
        },
        {
          "internalType": "uint256",
          "name": "tokenId",
          "type": "uint256"
        }
      ],
      "name": "safeTransferFrom",
      "outputs": [],
      "stateMutability": "nonpayable",
      "type": "function"
    },
    {
      "inputs": [
        {
          "internalType": "address",
          "name": "from",
          "type": "address"
        },
        {
          "internalType": "address",
          "name": "to",
          "type": "address"
        },
        {
          "internalType": "uint256",
          "name": "tokenId",
          "type": "uint256"
        },
        {
          "internalType": "bytes",
          "name": "_data",
          "type": "bytes"
        }
      ],
      "name": "safeTransferFrom",
      "outputs": [],
      "stateMutability": "nonpayable",
      "type": "function"
    },
    {
      "inputs": [
        {
          "internalType": "address",
          "name": "operator",
          "type": "address"
        },
        {
          "internalType": "bool",
          "name": "approved",
          "type": "bool"
        }
      ],
      "name": "setApprovalForAll",
      "outputs": [],
      "stateMutability": "nonpayable",
      "type": "function"
    },
    {
      "inputs": [
        {
          "internalType": "string",
          "name": "_baseExtension",
          "type": "string"
        }
      ],
      "name": "setBaseExtension",
      "outputs": [],
      "stateMutability": "nonpayable",
      "type": "function"
    },
    {
      "inputs": [
        {
          "internalType": "string",
          "name": "newBaseURI",
          "type": "string"
        }
      ],
      "name": "setBaseURI",
      "outputs": [],
      "stateMutability": "nonpayable",
      "type": "function"
    },
    {
      "inputs": [
        {
          "internalType": "uint256",
          "name": "amount",
          "type": "uint256"
        }
      ],
      "name": "setFreeMints",
      "outputs": [],
      "stateMutability": "nonpayable",
      "type": "function"
    },
    {
      "inputs": [
        {
          "internalType": "string",
          "name": "_hiddenMetadataUri",
          "type": "string"
        }
      ],
      "name": "setHiddenMetadataUri",
      "outputs": [],
      "stateMutability": "nonpayable",
      "type": "function"
    },
    {
      "inputs": [
        {
          "internalType": "uint256",
          "name": "newPrice",
          "type": "uint256"
        },
        {
          "internalType": "uint256",
          "name": "newWhitelistTokenPrice",
          "type": "uint256"
        },
        {
          "internalType": "uint256",
          "name": "setOpenMintLimit",
          "type": "uint256"
        },
        {
          "internalType": "uint256",
          "name": "setWhistlistPassMintLimit",
          "type": "uint256"
        },
        {
          "internalType": "bool",
          "name": "setPublicMintState",
          "type": "bool"
        },
        {
          "internalType": "bool",
          "name": "setPrivateMintState",
          "type": "bool"
        },
        {
          "internalType": "bool",
          "name": "setBogoMintState",
          "type": "bool"
        }
      ],
      "name": "setParams",
      "outputs": [],
      "stateMutability": "nonpayable",
      "type": "function"
    },
    {
      "inputs": [
        {
          "internalType": "bool",
          "name": "_state",
          "type": "bool"
        }
      ],
      "name": "setRevealed",
      "outputs": [],
      "stateMutability": "nonpayable",
      "type": "function"
    },
    {
      "inputs": [
        {
          "internalType": "address",
          "name": "newSigner",
          "type": "address"
        }
      ],
      "name": "setSignerAddress",
      "outputs": [],
      "stateMutability": "nonpayable",
      "type": "function"
    },
    {
      "inputs": [
        {
          "internalType": "uint256",
          "name": "newPrice",
          "type": "uint256"
        }
      ],
      "name": "setTokenPrice",
      "outputs": [],
      "stateMutability": "nonpayable",
      "type": "function"
    },
    {
      "inputs": [
        {
          "internalType": "uint256",
          "name": "newMintLimit",
          "type": "uint256"
        }
      ],
      "name": "setTransactionMintLimit",
      "outputs": [],
      "stateMutability": "nonpayable",
      "type": "function"
    },
    {
      "inputs": [
        {
          "internalType": "address",
          "name": "newVault",
          "type": "address"
        }
      ],
      "name": "setVaultAddress",
      "outputs": [],
      "stateMutability": "nonpayable",
      "type": "function"
    },
    {
      "inputs": [
        {
          "internalType": "uint256",
          "name": "newprivateMintLimit",
          "type": "uint256"
        }
      ],
      "name": "setWhitelistTransactionMintLimit",
      "outputs": [],
      "stateMutability": "nonpayable",
      "type": "function"
    },
    {
      "inputs": [
        {
          "internalType": "address",
          "name": "account",
          "type": "address"
        }
      ],
      "name": "shares",
      "outputs": [
        {
          "internalType": "uint256",
          "name": "",
          "type": "uint256"
        }
      ],
      "stateMutability": "view",
      "type": "function"
    },
    {
      "inputs": [
        {
          "internalType": "bytes4",
          "name": "interfaceId",
          "type": "bytes4"
        }
      ],
      "name": "supportsInterface",
      "outputs": [
        {
          "internalType": "bool",
          "name": "",
          "type": "bool"
        }
      ],
      "stateMutability": "view",
      "type": "function"
    },
    {
      "inputs": [],
      "name": "symbol",
      "outputs": [
        {
          "internalType": "string",
          "name": "",
          "type": "string"
        }
      ],
      "stateMutability": "view",
      "type": "function"
    },
    {
      "inputs": [
        {
          "internalType": "address",
          "name": "to",
          "type": "address"
        },
        {
          "internalType": "uint256",
          "name": "amount",
          "type": "uint256"
        }
      ],
      "name": "teamMint",
      "outputs": [],
      "stateMutability": "nonpayable",
      "type": "function"
    },
    {
      "inputs": [],
      "name": "toggleBogoMint",
      "outputs": [],
      "stateMutability": "nonpayable",
      "type": "function"
    },
    {
      "inputs": [],
      "name": "togglePresaleMint",
      "outputs": [],
      "stateMutability": "nonpayable",
      "type": "function"
    },
    {
      "inputs": [],
      "name": "togglePublicMint",
      "outputs": [],
      "stateMutability": "nonpayable",
      "type": "function"
    },
    {
      "inputs": [],
      "name": "tokenPrice",
      "outputs": [
        {
          "internalType": "uint256",
          "name": "",
          "type": "uint256"
        }
      ],
      "stateMutability": "view",
      "type": "function"
    },
    {
      "inputs": [
        {
          "internalType": "uint256",
          "name": "_tokenId",
          "type": "uint256"
        }
      ],
      "name": "tokenURI",
      "outputs": [
        {
          "internalType": "string",
          "name": "",
          "type": "string"
        }
      ],
      "stateMutability": "view",
      "type": "function"
    },
    {
      "inputs": [
        {
          "internalType": "contract IERC20",
          "name": "token",
          "type": "address"
        }
      ],
      "name": "totalReleased",
      "outputs": [
        {
          "internalType": "uint256",
          "name": "",
          "type": "uint256"
        }
      ],
      "stateMutability": "view",
      "type": "function"
    },
    {
      "inputs": [],
      "name": "totalReleased",
      "outputs": [
        {
          "internalType": "uint256",
          "name": "",
          "type": "uint256"
        }
      ],
      "stateMutability": "view",
      "type": "function"
    },
    {
      "inputs": [],
      "name": "totalShares",
      "outputs": [
        {
          "internalType": "uint256",
          "name": "",
          "type": "uint256"
        }
      ],
      "stateMutability": "view",
      "type": "function"
    },
    {
      "inputs": [],
      "name": "totalSupply",
      "outputs": [
        {
          "internalType": "uint256",
          "name": "",
          "type": "uint256"
        }
      ],
      "stateMutability": "view",
      "type": "function"
    },
    {
      "inputs": [
        {
          "internalType": "address",
          "name": "from",
          "type": "address"
        },
        {
          "internalType": "address",
          "name": "to",
          "type": "address"
        },
        {
          "internalType": "uint256",
          "name": "tokenId",
          "type": "uint256"
        }
      ],
      "name": "transferFrom",
      "outputs": [],
      "stateMutability": "nonpayable",
      "type": "function"
    },
    {
      "inputs": [
        {
          "internalType": "address",
          "name": "newOwner",
          "type": "address"
        }
      ],
      "name": "transferOwnership",
      "outputs": [],
      "stateMutability": "nonpayable",
      "type": "function"
    },
    {
      "inputs": [
        {
          "internalType": "uint8",
          "name": "quantity",
          "type": "uint8"
        },
        {
          "internalType": "uint8",
          "name": "claimable",
          "type": "uint8"
        },
        {
          "components": [
            {
              "internalType": "bytes32",
              "name": "r",
              "type": "bytes32"
            },
            {
              "internalType": "bytes32",
              "name": "s",
              "type": "bytes32"
            },
            {
              "internalType": "uint8",
              "name": "v",
              "type": "uint8"
            }
          ],
          "internalType": "struct TheKreamerCollection.WhitelistClaimPass",
          "name": "whitelistClaimPass",
          "type": "tuple"
        }
      ],
      "name": "whitelistClaimMint",
      "outputs": [],
      "stateMutability": "payable",
      "type": "function"
    },
    {
      "inputs": [],
      "name": "whitelistMintMaxLimit",
      "outputs": [
        {
          "internalType": "uint256",
          "name": "",
          "type": "uint256"
        }
      ],
      "stateMutability": "view",
      "type": "function"
    },
    {
      "inputs": [],
      "name": "whitelistTokenPrice",
      "outputs": [
        {
          "internalType": "uint256",
          "name": "",
          "type": "uint256"
        }
      ],
      "stateMutability": "view",
      "type": "function"
    },
    {
      "inputs": [],
      "name": "withdraw",
      "outputs": [],
      "stateMutability": "nonpayable",
      "type": "function"
    },
    {
      "stateMutability": "payable",
      "type": "receive"
    }
  ],
  "bytecode": "0x603260118190556012556701f161421c8e000060135566c3663566a580006014556103846015556016805463ffffffff1916905560c06040526005608081905264173539b7b760d91b60a09081526200005c9160189190620008a8565b50601a80546001600160a01b0319908116909155601b8054909116905560408051808201909152600c8082526b0e8cac6d0dee6d0d25ccae8d60a31b6020909201918252620000ae91601d91620008a8565b50604080518082019091526008808252676e667470756d707360c01b6020909201918252620000e091601e91620008a8565b5060405162004ef938038062004ef9833981016040819052620001039162000b57565b8181898962000112336200031c565b815162000127906001906020850190620008a8565b5080516200013d906002906020840190620008a8565b5050508051825114620001b25760405162461bcd60e51b815260206004820152603260248201527f5061796d656e7453706c69747465723a2070617965657320616e6420736861726044820152710cae640d8cadccee8d040dad2e6dac2e8c6d60731b60648201526084015b60405180910390fd5b6000825111620002055760405162461bcd60e51b815260206004820152601a60248201527f5061796d656e7453706c69747465723a206e6f207061796565730000000000006044820152606401620001a9565b60005b825181101562000271576200025c8382815181106200022b576200022b62000c85565b602002602001015183838151811062000248576200024862000c85565b60200260200101516200036c60201b60201c565b80620002688162000cb1565b91505062000208565b5050601a80546001600160a01b03199081166001600160a01b038a811691909117909255601b805490911691881691909117905550620002be600f6200055a602090811b6200296e17901c565b620002d5600f6200055a60201b6200296e1760201c565b620002e233600162000563565b8351620002f7906017906020870190620008a8565b5082516200030d906019906020860190620008a8565b50505050505050505062000db0565b600080546001600160a01b038381166001600160a01b0319831681178455604051919092169283917f8be0079c531659141344cd1fd0a4f28419497f9722a3daafe3b4186f6b6457e09190a35050565b6001600160a01b038216620003d95760405162461bcd60e51b815260206004820152602c60248201527f5061796d656e7453706c69747465723a206163636f756e74206973207468652060448201526b7a65726f206164647265737360a01b6064820152608401620001a9565b600081116200042b5760405162461bcd60e51b815260206004820152601d60248201527f5061796d656e7453706c69747465723a207368617265732061726520300000006044820152606401620001a9565b6001600160a01b0382166000908152600a602052604090205415620004a75760405162461bcd60e51b815260206004820152602b60248201527f5061796d656e7453706c69747465723a206163636f756e7420616c726561647960448201526a206861732073686172657360a81b6064820152608401620001a9565b600c8054600181019091557fdf6966c971051c3d54ec59162606531493a51404a002842f56009d7e5cf4a8c70180546001600160a01b0319166001600160a01b0384169081179091556000908152600a602052604090208190556008546200051190829062000ccf565b600855604080516001600160a01b0384168152602081018390527f40c340f65e17194d14ddddb073d3c9f888e3cb52b5aae0c6c7706b4fbc905fac910160405180910390a15050565b80546001019055565b620005858282604051806020016040528060008152506200058960201b60201c565b5050565b62000595838362000601565b620005a4600084848462000749565b620005fc5760405162461bcd60e51b8152602060048201526032602482015260008051602062004ed983398151915260448201527131b2b4bb32b91034b6b83632b6b2b73a32b960711b6064820152608401620001a9565b505050565b6001600160a01b038216620006595760405162461bcd60e51b815260206004820181905260248201527f4552433732313a206d696e7420746f20746865207a65726f20616464726573736044820152606401620001a9565b6000818152600360205260409020546001600160a01b031615620006c05760405162461bcd60e51b815260206004820152601c60248201527f4552433732313a20746f6b656e20616c7265616479206d696e746564000000006044820152606401620001a9565b6001600160a01b0382166000908152600460205260408120805460019290620006eb90849062000ccf565b909155505060008181526003602052604080822080546001600160a01b0319166001600160a01b03861690811790915590518392907fddf252ad1be2c89b69c2b068fc378daa952ba7f163c4a11628f55a4df523b3ef908290a45050565b60006200076a846001600160a01b0316620008a260201b620029771760201c565b156200089657604051630a85bd0160e11b81526001600160a01b0385169063150b7a0290620007a490339089908890889060040162000cea565b6020604051808303816000875af1925050508015620007e2575060408051601f3d908101601f19168201909252620007df9181019062000d40565b60015b6200087b573d80801562000813576040519150601f19603f3d011682016040523d82523d6000602084013e62000818565b606091505b508051620008735760405162461bcd60e51b8152602060048201526032602482015260008051602062004ed983398151915260448201527131b2b4bb32b91034b6b83632b6b2b73a32b960711b6064820152608401620001a9565b805181602001fd5b6001600160e01b031916630a85bd0160e11b1490506200089a565b5060015b949350505050565b3b151590565b828054620008b69062000d73565b90600052602060002090601f016020900481019282620008da576000855562000925565b82601f10620008f557805160ff191683800117855562000925565b8280016001018555821562000925579182015b828111156200092557825182559160200191906001019062000908565b506200093392915062000937565b5090565b5b8082111562000933576000815560010162000938565b634e487b7160e01b600052604160045260246000fd5b604051601f8201601f191681016001600160401b03811182821017156200098f576200098f6200094e565b604052919050565b60005b83811015620009b45781810151838201526020016200099a565b83811115620009c4576000848401525b50505050565b600082601f830112620009dc57600080fd5b81516001600160401b03811115620009f857620009f86200094e565b62000a0d601f8201601f191660200162000964565b81815284602083860101111562000a2357600080fd5b6200089a82602083016020870162000997565b80516001600160a01b038116811462000a4e57600080fd5b919050565b60006001600160401b0382111562000a6f5762000a6f6200094e565b5060051b60200190565b600082601f83011262000a8b57600080fd5b8151602062000aa462000a9e8362000a53565b62000964565b82815260059290921b8401810191818101908684111562000ac457600080fd5b8286015b8481101562000aea5762000adc8162000a36565b835291830191830162000ac8565b509695505050505050565b600082601f83011262000b0757600080fd5b8151602062000b1a62000a9e8362000a53565b82815260059290921b8401810191818101908684111562000b3a57600080fd5b8286015b8481101562000aea578051835291830191830162000b3e565b600080600080600080600080610100898b03121562000b7557600080fd5b88516001600160401b038082111562000b8d57600080fd5b62000b9b8c838d01620009ca565b995060208b015191508082111562000bb257600080fd5b62000bc08c838d01620009ca565b985062000bd060408c0162000a36565b975062000be060608c0162000a36565b965060808b015191508082111562000bf757600080fd5b62000c058c838d01620009ca565b955060a08b015191508082111562000c1c57600080fd5b62000c2a8c838d01620009ca565b945060c08b015191508082111562000c4157600080fd5b62000c4f8c838d0162000a79565b935060e08b015191508082111562000c6657600080fd5b5062000c758b828c0162000af5565b9150509295985092959890939650565b634e487b7160e01b600052603260045260246000fd5b634e487b7160e01b600052601160045260246000fd5b600060001982141562000cc85762000cc862000c9b565b5060010190565b6000821982111562000ce55762000ce562000c9b565b500190565b600060018060a01b03808716835280861660208401525083604083015260806060830152825180608084015262000d298160a085016020870162000997565b601f01601f19169190910160a00195945050505050565b60006020828403121562000d5357600080fd5b81516001600160e01b03198116811462000d6c57600080fd5b9392505050565b600181811c9082168062000d8857607f821691505b6020821081141562000daa57634e487b7160e01b600052602260045260246000fd5b50919050565b6141198062000dc06000396000f3fe60806040526004361061039b5760003560e01c806385535cc5116101dc578063ce7c2ac211610102578063e7db8fb0116100a0578063ee28de521161006f578063ee28de5214610ad3578063f2fde38b14610af3578063f47c84c514610b13578063fa468ead14610b2957600080fd5b8063e7db8fb014610a42578063e985e9c514610a62578063ed0478bd14610aab578063ed4dcde614610abe57600080fd5b8063da3ef23f116100dc578063da3ef23f146109d7578063e0a80853146109f7578063e33b7de314610a17578063e4a4255114610a2c57600080fd5b8063ce7c2ac214610955578063d25f40471461098b578063d79779b2146109a157600080fd5b8063a1c7731d1161017a578063add5a4fa11610149578063add5a4fa146108e0578063b88d4fde14610900578063c668286214610920578063c87b56dd1461093557600080fd5b8063a1c7731d14610877578063a22cb46514610896578063a45ba8e7146108b6578063a7743d4f146108cb57600080fd5b806395d89b41116101b657806395d89b41146107ff5780639852595c14610814578063a02d1d5a1461084a578063a15d60c51461085d57600080fd5b806385535cc5146107a15780638b83209b146107c15780638da5cb5b146107e157600080fd5b80633ccfd60b116102c15780634fdd43cb1161025f5780636a61e5fc1161022e5780636a61e5fc1461073657806370a0823114610756578063715018a6146107765780637ff9b5961461078b57600080fd5b80634fdd43cb146106b557806351830227146106d557806355f804b3146106f65780636352211e1461071657600080fd5b806342842e0e1161029b57806342842e0e146106425780634287084f1461066257806342966c681461067557806348b750441461069557600080fd5b80633ccfd60b146105d25780634047638d146105e7578063406072a9146105fc57600080fd5b806318160ddd116103395780632cb15fd3116103085780632cb15fd31461057257806332bc640414610588578063353f849e146105a85780633a98ef39146105bd57600080fd5b806318160ddd146104fa578063191655871461051d57806320b2af521461053d57806323b872dd1461055257600080fd5b8063081812fc11610375578063081812fc14610462578063095ea7b31461049a5780630d738aeb146104ba5780630f1e6828146104da57600080fd5b806301ffc9a7146103e9578063046dc1661461041e57806306fdde031461044057600080fd5b366103e4577f6ef95f06320e7a25a04a175ca677b7052bdd97131872c2192525a629f51be77033604080516001600160a01b0390921682523460208301520160405180910390a1005b600080fd5b3480156103f557600080fd5b50610409610404366004613a04565b610b3f565b60405190151581526020015b60405180910390f35b34801561042a57600080fd5b5061043e610439366004613a36565b610c24565b005b34801561044c57600080fd5b50610455610cb2565b6040516104159190613aab565b34801561046e57600080fd5b5061048261047d366004613abe565b610d44565b6040516001600160a01b039091168152602001610415565b3480156104a657600080fd5b5061043e6104b5366004613ad7565b610dea565b3480156104c657600080fd5b5061043e6104d5366004613abe565b610f1c565b3480156104e657600080fd5b5061043e6104f5366004613abe565b610f7b565b34801561050657600080fd5b5061050f610fda565b604051908152602001610415565b34801561052957600080fd5b5061043e610538366004613a36565b610ff6565b34801561054957600080fd5b506104556111d0565b34801561055e57600080fd5b5061043e61056d366004613b03565b61125e565b34801561057e57600080fd5b5061050f60155481565b34801561059457600080fd5b5061043e6105a3366004613b52565b6112e5565b3480156105b457600080fd5b506104556113aa565b3480156105c957600080fd5b5060085461050f565b3480156105de57600080fd5b5061043e6113b7565b3480156105f357600080fd5b5061043e61144d565b34801561060857600080fd5b5061050f610617366004613bc4565b6001600160a01b039182166000908152600e6020908152604080832093909416825291909152205490565b34801561064e57600080fd5b5061043e61065d366004613b03565b6114bb565b61043e610670366004613abe565b6114d6565b34801561068157600080fd5b5061043e610690366004613abe565b61168e565b3480156106a157600080fd5b5061043e6106b0366004613bc4565b6116f1565b3480156106c157600080fd5b5061043e6106d0366004613c89565b61198f565b3480156106e157600080fd5b50601654610409906301000000900460ff1681565b34801561070257600080fd5b5061043e610711366004613c89565b611a00565b34801561072257600080fd5b50610482610731366004613abe565b611a6d565b34801561074257600080fd5b5061043e610751366004613abe565b611af8565b34801561076257600080fd5b5061050f610771366004613a36565b611b57565b34801561078257600080fd5b5061043e611bf1565b34801561079757600080fd5b5061050f60135481565b3480156107ad57600080fd5b5061043e6107bc366004613a36565b611c57565b3480156107cd57600080fd5b506104826107dc366004613abe565b611ce0565b3480156107ed57600080fd5b506000546001600160a01b0316610482565b34801561080b57600080fd5b50610455611d10565b34801561082057600080fd5b5061050f61082f366004613a36565b6001600160a01b03166000908152600b602052604090205490565b61043e610858366004613ce8565b611d1f565b34801561086957600080fd5b506016546104099060ff1681565b34801561088357600080fd5b5060165461040990610100900460ff1681565b3480156108a257600080fd5b5061043e6108b1366004613d9b565b6120df565b3480156108c257600080fd5b506104556120ea565b3480156108d757600080fd5b5061043e6120f7565b3480156108ec57600080fd5b5061043e6108fb366004613ad7565b61216e565b34801561090c57600080fd5b5061043e61091b366004613dc9565b61227b565b34801561092c57600080fd5b50610455612303565b34801561094157600080fd5b50610455610950366004613abe565b612310565b34801561096157600080fd5b5061050f610970366004613a36565b6001600160a01b03166000908152600a602052604090205490565b34801561099757600080fd5b5061050f60115481565b3480156109ad57600080fd5b5061050f6109bc366004613a36565b6001600160a01b03166000908152600d602052604090205490565b3480156109e357600080fd5b5061043e6109f2366004613c89565b61249f565b348015610a0357600080fd5b5061043e610a12366004613e49565b61250c565b348015610a2357600080fd5b5060095461050f565b348015610a3857600080fd5b5061050f60125481565b348015610a4e57600080fd5b5061043e610a5d366004613abe565b61259f565b348015610a6e57600080fd5b50610409610a7d366004613bc4565b6001600160a01b03918216600090815260066020908152604080832093909416825291909152205460ff1690565b61043e610ab9366004613abe565b612650565b348015610aca57600080fd5b5061043e612816565b348015610adf57600080fd5b506016546104099062010000900460ff1681565b348015610aff57600080fd5b5061043e610b0e366004613a36565b61288f565b348015610b1f57600080fd5b5061050f610c1c81565b348015610b3557600080fd5b5061050f60145481565b60007fffffffff0000000000000000000000000000000000000000000000000000000082167f80ac58cd000000000000000000000000000000000000000000000000000000001480610bd257507fffffffff0000000000000000000000000000000000000000000000000000000082167f5b5e139f00000000000000000000000000000000000000000000000000000000145b80610c1e57507f01ffc9a7000000000000000000000000000000000000000000000000000000007fffffffff000000000000000000000000000000000000000000000000000000008316145b92915050565b6000546001600160a01b03163314610c835760405162461bcd60e51b815260206004820181905260248201527f4f776e61626c653a2063616c6c6572206973206e6f7420746865206f776e657260448201526064015b60405180910390fd5b601b805473ffffffffffffffffffffffffffffffffffffffff19166001600160a01b0392909216919091179055565b606060018054610cc190613e66565b80601f0160208091040260200160405190810160405280929190818152602001828054610ced90613e66565b8015610d3a5780601f10610d0f57610100808354040283529160200191610d3a565b820191906000526020600020905b815481529060010190602001808311610d1d57829003601f168201915b5050505050905090565b6000818152600360205260408120546001600160a01b0316610dce5760405162461bcd60e51b815260206004820152602c60248201527f4552433732313a20617070726f76656420717565727920666f72206e6f6e657860448201527f697374656e7420746f6b656e00000000000000000000000000000000000000006064820152608401610c7a565b506000908152600560205260409020546001600160a01b031690565b6000610df582611a6d565b9050806001600160a01b0316836001600160a01b03161415610e7f5760405162461bcd60e51b815260206004820152602160248201527f4552433732313a20617070726f76616c20746f2063757272656e74206f776e6560448201527f72000000000000000000000000000000000000000000000000000000000000006064820152608401610c7a565b336001600160a01b0382161480610e9b5750610e9b8133610a7d565b610f0d5760405162461bcd60e51b815260206004820152603860248201527f4552433732313a20617070726f76652063616c6c6572206973206e6f74206f7760448201527f6e6572206e6f7220617070726f76656420666f7220616c6c00000000000000006064820152608401610c7a565b610f17838361297d565b505050565b6000546001600160a01b03163314610f765760405162461bcd60e51b815260206004820181905260248201527f4f776e61626c653a2063616c6c6572206973206e6f7420746865206f776e65726044820152606401610c7a565b601255565b6000546001600160a01b03163314610fd55760405162461bcd60e51b815260206004820181905260248201527f4f776e61626c653a2063616c6c6572206973206e6f7420746865206f776e65726044820152606401610c7a565b601155565b60006001610fe7600f5490565b610ff19190613eb7565b905090565b6001600160a01b0381166000908152600a60205260409020546110815760405162461bcd60e51b815260206004820152602660248201527f5061796d656e7453706c69747465723a206163636f756e7420686173206e6f2060448201527f73686172657300000000000000000000000000000000000000000000000000006064820152608401610c7a565b600061108c60095490565b6110969047613ece565b905060006110c383836110be866001600160a01b03166000908152600b602052604090205490565b6129f8565b9050806111385760405162461bcd60e51b815260206004820152602b60248201527f5061796d656e7453706c69747465723a206163636f756e74206973206e6f742060448201527f647565207061796d656e740000000000000000000000000000000000000000006064820152608401610c7a565b6001600160a01b0383166000908152600b602052604081208054839290611160908490613ece565b9250508190555080600960008282546111799190613ece565b9091555061118990508382612a3e565b604080516001600160a01b0385168152602081018390527fdf20fd1e76bc69d672e4814fafb2c449bba3a5369d8359adf9e05e6fde87b056910160405180910390a1505050565b601d80546111dd90613e66565b80601f016020809104026020016040519081016040528092919081815260200182805461120990613e66565b80156112565780601f1061122b57610100808354040283529160200191611256565b820191906000526020600020905b81548152906001019060200180831161123957829003601f168201915b505050505081565b6112683382612b57565b6112da5760405162461bcd60e51b815260206004820152603160248201527f4552433732313a207472616e736665722063616c6c6572206973206e6f74206f60448201527f776e6572206e6f7220617070726f7665640000000000000000000000000000006064820152608401610c7a565b610f17838383612c5e565b6000546001600160a01b0316331461133f5760405162461bcd60e51b815260206004820181905260248201527f4f776e61626c653a2063616c6c6572206973206e6f7420746865206f776e65726044820152606401610c7a565b601495909555601395909555601192909255601255601680547fffffffffffffffffffffffffffffffffffffffffffffffffffffffffff00ff001691151562ff000019169190911762010000931515939093029290921761ff00191661010091151591909102179055565b601e80546111dd90613e66565b6000546001600160a01b031633146114115760405162461bcd60e51b815260206004820181905260248201527f4f776e61626c653a2063616c6c6572206973206e6f7420746865206f776e65726044820152606401610c7a565b601a546040516001600160a01b03909116904780156108fc02916000818181858888f1935050505015801561144a573d6000803e3d6000fd5b50565b6000546001600160a01b031633146114a75760405162461bcd60e51b815260206004820181905260248201527f4f776e61626c653a2063616c6c6572206973206e6f7420746865206f776e65726044820152606401610c7a565b6016805460ff19811660ff90911615179055565b610f178383836040518060200160405280600081525061227b565b34816013546114e59190613ee6565b11156115335760405162461bcd60e51b815260206004820152601560248201527f4e6f7420656e6f7567682065746865722073656e7400000000000000000000006044820152606401610c7a565b600061153e600f5490565b60165490915060ff1615156001146115985760405162461bcd60e51b815260206004820152601260248201527f5075626c6963204d696e7420436c6f73656400000000000000000000000000006044820152606401610c7a565b6011548211156115ea5760405162461bcd60e51b815260206004820152601560248201527f4d696e7420616d6f756e7420746f6f206c6172676500000000000000000000006044820152606401610c7a565b610c1c6115f8600183613eb7565b6116029084613ece565b11156116505760405162461bcd60e51b815260206004820152601b60248201527f4e6f7420656e6f75676820746f6b656e732072656d61696e696e6700000000006044820152606401610c7a565b60005b82811015610f1757611669600f80546001019055565b61167c336116778385613ece565b612e38565b8061168681613f05565b915050611653565b6000546001600160a01b031633146116e85760405162461bcd60e51b815260206004820181905260248201527f4f776e61626c653a2063616c6c6572206973206e6f7420746865206f776e65726044820152606401610c7a565b61144a81612e52565b6001600160a01b0381166000908152600a602052604090205461177c5760405162461bcd60e51b815260206004820152602660248201527f5061796d656e7453706c69747465723a206163636f756e7420686173206e6f2060448201527f73686172657300000000000000000000000000000000000000000000000000006064820152608401610c7a565b6001600160a01b0382166000908152600d60205260408120546040517f70a082310000000000000000000000000000000000000000000000000000000081523060048201526001600160a01b038516906370a0823190602401602060405180830381865afa1580156117f2573d6000803e3d6000fd5b505050506040513d601f19601f820116820180604052508101906118169190613f20565b6118209190613ece565b9050600061185983836110be87876001600160a01b039182166000908152600e6020908152604080832093909416825291909152205490565b9050806118ce5760405162461bcd60e51b815260206004820152602b60248201527f5061796d656e7453706c69747465723a206163636f756e74206973206e6f742060448201527f647565207061796d656e740000000000000000000000000000000000000000006064820152608401610c7a565b6001600160a01b038085166000908152600e6020908152604080832093871683529290529081208054839290611905908490613ece565b90915550506001600160a01b0384166000908152600d602052604081208054839290611932908490613ece565b909155506119439050848483612e5b565b604080516001600160a01b038581168252602082018490528616917f3be5b7a71e84ed12875d241991c70855ac5817d847039e17a9d895c1ceb0f18a910160405180910390a250505050565b6000546001600160a01b031633146119e95760405162461bcd60e51b815260206004820181905260248201527f4f776e61626c653a2063616c6c6572206973206e6f7420746865206f776e65726044820152606401610c7a565b80516119fc906019906020840190613907565b5050565b6000546001600160a01b03163314611a5a5760405162461bcd60e51b815260206004820181905260248201527f4f776e61626c653a2063616c6c6572206973206e6f7420746865206f776e65726044820152606401610c7a565b80516119fc906017906020840190613907565b6000818152600360205260408120546001600160a01b031680610c1e5760405162461bcd60e51b815260206004820152602960248201527f4552433732313a206f776e657220717565727920666f72206e6f6e657869737460448201527f656e7420746f6b656e00000000000000000000000000000000000000000000006064820152608401610c7a565b6000546001600160a01b03163314611b525760405162461bcd60e51b815260206004820181905260248201527f4f776e61626c653a2063616c6c6572206973206e6f7420746865206f776e65726044820152606401610c7a565b601355565b60006001600160a01b038216611bd55760405162461bcd60e51b815260206004820152602a60248201527f4552433732313a2062616c616e636520717565727920666f7220746865207a6560448201527f726f2061646472657373000000000000000000000000000000000000000000006064820152608401610c7a565b506001600160a01b031660009081526004602052604090205490565b6000546001600160a01b03163314611c4b5760405162461bcd60e51b815260206004820181905260248201527f4f776e61626c653a2063616c6c6572206973206e6f7420746865206f776e65726044820152606401610c7a565b611c556000612edb565b565b6000546001600160a01b03163314611cb15760405162461bcd60e51b815260206004820181905260248201527f4f776e61626c653a2063616c6c6572206973206e6f7420746865206f776e65726044820152606401610c7a565b601a805473ffffffffffffffffffffffffffffffffffffffff19166001600160a01b0392909216919091179055565b6000600c8281548110611cf557611cf5613f39565b6000918252602090912001546001600160a01b031692915050565b606060028054610cc190613e66565b6040805160ff841660208083019190915233828401528251808303840181526060909201909252805191012082908290611d598183612f38565b611da55760405162461bcd60e51b815260206004820152600c60248201527f496e76616c6964205061737300000000000000000000000000000000000000006044820152606401610c7a565b348660ff16601454611db79190613ee6565b1115611e055760405162461bcd60e51b815260206004820152601560248201527f4e6f7420656e6f7567682065746865722073656e7400000000000000000000006044820152606401610c7a565b6000611e10600f5490565b60165490915062010000900460ff161515600114611e705760405162461bcd60e51b815260206004820152601160248201527f436c61696d204d696e7420436c6f7365640000000000000000000000000000006044820152606401610c7a565b610c1c611e7e600183613eb7565b611e8b9060ff8a16613ece565b1115611ed95760405162461bcd60e51b815260206004820152601b60248201527f4e6f7420656e6f75676820746f6b656e732072656d61696e696e6700000000006044820152606401610c7a565b8560ff168760ff161115611f555760405162461bcd60e51b815260206004820152602d60248201527f4d696e74207175616e746974792063616e27742062652067726561746572207460448201527f68616e20636c61696d61626c65000000000000000000000000000000000000006064820152608401610c7a565b60008760ff1611611fce5760405162461bcd60e51b815260206004820152602760248201527f4d696e74207175616e74697479206d757374206265206772656174657220746860448201527f616e207a65726f000000000000000000000000000000000000000000000000006064820152608401610c7a565b6012548760ff1611156120235760405162461bcd60e51b815260206004820152601760248201527f4d696e74207175616e7469747920746f6f206c617267650000000000000000006044820152606401610c7a565b6015548760ff1661203360105490565b61203d9190613ece565b111561208b5760405162461bcd60e51b815260206004820152601f60248201527f4e6f7420656e6f7567682066726565206d696e74732072656d61696e696e67006044820152606401610c7a565b60005b8760ff168110156120d5576120a7600f80546001019055565b6120b5601080546001019055565b6120c3336116778385613ece565b806120cd81613f05565b91505061208e565b5050505050505050565b6119fc338383613020565b601980546111dd90613e66565b6000546001600160a01b031633146121515760405162461bcd60e51b815260206004820181905260248201527f4f776e61626c653a2063616c6c6572206973206e6f7420746865206f776e65726044820152606401610c7a565b6016805461ff001981166101009182900460ff1615909102179055565b6000546001600160a01b031633146121c85760405162461bcd60e51b815260206004820181905260248201527f4f776e61626c653a2063616c6c6572206973206e6f7420746865206f776e65726044820152606401610c7a565b60006121d3600f5490565b9050610c1c826121e4600184613eb7565b6121ee9190613ece565b111561223c5760405162461bcd60e51b815260206004820152601b60248201527f4e6f7420656e6f75676820746f6b656e732072656d61696e696e6700000000006044820152606401610c7a565b60005b8281101561227557612255600f80546001019055565b612263846116778385613ece565b8061226d81613f05565b91505061223f565b50505050565b6122853383612b57565b6122f75760405162461bcd60e51b815260206004820152603160248201527f4552433732313a207472616e736665722063616c6c6572206973206e6f74206f60448201527f776e6572206e6f7220617070726f7665640000000000000000000000000000006064820152608401610c7a565b612275848484846130ef565b601880546111dd90613e66565b6000818152600360205260409020546060906001600160a01b031661239d5760405162461bcd60e51b815260206004820152602f60248201527f4552433732314d657461646174613a2055524920717565727920666f72206e6f60448201527f6e6578697374656e7420746f6b656e00000000000000000000000000000000006064820152608401610c7a565b6016546301000000900460ff1661244057601980546123bb90613e66565b80601f01602080910402602001604051908101604052809291908181526020018280546123e790613e66565b80156124345780601f1061240957610100808354040283529160200191612434565b820191906000526020600020905b81548152906001019060200180831161241757829003601f168201915b50505050509050919050565b600061244a613178565b9050600081511161246a5760405180602001604052806000815250612498565b8061247484613187565b601860405160200161248893929190613f4f565b6040516020818303038152906040525b9392505050565b6000546001600160a01b031633146124f95760405162461bcd60e51b815260206004820181905260248201527f4f776e61626c653a2063616c6c6572206973206e6f7420746865206f776e65726044820152606401610c7a565b80516119fc906018906020840190613907565b6000546001600160a01b031633146125665760405162461bcd60e51b815260206004820181905260248201527f4f776e61626c653a2063616c6c6572206973206e6f7420746865206f776e65726044820152606401610c7a565b601680549115156301000000027fffffffffffffffffffffffffffffffffffffffffffffffffffffffff00ffffff909216919091179055565b6000546001600160a01b031633146125f95760405162461bcd60e51b815260206004820181905260248201527f4f776e61626c653a2063616c6c6572206973206e6f7420746865206f776e65726044820152606401610c7a565b610c1c81111561264b5760405162461bcd60e51b815260206004820152601a60248201527f46726565206d696e7420616d6f756e7420746f6f206c617267650000000000006044820152606401610c7a565b601555565b348160135461265f9190613ee6565b11156126ad5760405162461bcd60e51b815260206004820152601560248201527f4e6f7420656e6f7567682065746865722073656e7400000000000000000000006044820152606401610c7a565b6011548111156126ff5760405162461bcd60e51b815260206004820152601560248201527f4d696e7420616d6f756e7420746f6f206c6172676500000000000000000000006044820152606401610c7a565b61270a816002613ee6565b90506000612717600f5490565b60165490915060ff6101009091041615156001146127775760405162461bcd60e51b815260206004820152601060248201527f426f676f204d696e7420436c6f736564000000000000000000000000000000006044820152606401610c7a565b610c1c612785600183613eb7565b61278f9084613ece565b11156127dd5760405162461bcd60e51b815260206004820152601b60248201527f4e6f7420656e6f75676820746f6b656e732072656d61696e696e6700000000006044820152606401610c7a565b60005b82811015610f17576127f6600f80546001019055565b612804336116778385613ece565b8061280e81613f05565b9150506127e0565b6000546001600160a01b031633146128705760405162461bcd60e51b815260206004820181905260248201527f4f776e61626c653a2063616c6c6572206973206e6f7420746865206f776e65726044820152606401610c7a565b6016805462ff0000198116620100009182900460ff1615909102179055565b6000546001600160a01b031633146128e95760405162461bcd60e51b815260206004820181905260248201527f4f776e61626c653a2063616c6c6572206973206e6f7420746865206f776e65726044820152606401610c7a565b6001600160a01b0381166129655760405162461bcd60e51b815260206004820152602660248201527f4f776e61626c653a206e6577206f776e657220697320746865207a65726f206160448201527f64647265737300000000000000000000000000000000000000000000000000006064820152608401610c7a565b61144a81612edb565b80546001019055565b3b151590565b6000818152600560205260409020805473ffffffffffffffffffffffffffffffffffffffff19166001600160a01b03841690811790915581906129bf82611a6d565b6001600160a01b03167f8c5be1e5ebec7d5bd14f71427d1e84f3dd0314c0f7b2291e5b200ac8c7c3b92560405160405180910390a45050565b6008546001600160a01b0384166000908152600a602052604081205490918391612a229086613ee6565b612a2c9190614029565b612a369190613eb7565b949350505050565b80471015612a8e5760405162461bcd60e51b815260206004820152601d60248201527f416464726573733a20696e73756666696369656e742062616c616e63650000006044820152606401610c7a565b6000826001600160a01b03168260405160006040518083038185875af1925050503d8060008114612adb576040519150601f19603f3d011682016040523d82523d6000602084013e612ae0565b606091505b5050905080610f175760405162461bcd60e51b815260206004820152603a60248201527f416464726573733a20756e61626c6520746f2073656e642076616c75652c207260448201527f6563697069656e74206d617920686176652072657665727465640000000000006064820152608401610c7a565b6000818152600360205260408120546001600160a01b0316612be15760405162461bcd60e51b815260206004820152602c60248201527f4552433732313a206f70657261746f7220717565727920666f72206e6f6e657860448201527f697374656e7420746f6b656e00000000000000000000000000000000000000006064820152608401610c7a565b6000612bec83611a6d565b9050806001600160a01b0316846001600160a01b03161480612c275750836001600160a01b0316612c1c84610d44565b6001600160a01b0316145b80612a3657506001600160a01b0380821660009081526006602090815260408083209388168352929052205460ff16949350505050565b826001600160a01b0316612c7182611a6d565b6001600160a01b031614612ced5760405162461bcd60e51b815260206004820152602960248201527f4552433732313a207472616e73666572206f6620746f6b656e2074686174206960448201527f73206e6f74206f776e00000000000000000000000000000000000000000000006064820152608401610c7a565b6001600160a01b038216612d685760405162461bcd60e51b8152602060048201526024808201527f4552433732313a207472616e7366657220746f20746865207a65726f2061646460448201527f72657373000000000000000000000000000000000000000000000000000000006064820152608401610c7a565b612d7360008261297d565b6001600160a01b0383166000908152600460205260408120805460019290612d9c908490613eb7565b90915550506001600160a01b0382166000908152600460205260408120805460019290612dca908490613ece565b9091555050600081815260036020526040808220805473ffffffffffffffffffffffffffffffffffffffff19166001600160a01b0386811691821790925591518493918716917fddf252ad1be2c89b69c2b068fc378daa952ba7f163c4a11628f55a4df523b3ef91a4505050565b6119fc8282604051806020016040528060008152506132b9565b61144a81613342565b604080516001600160a01b038416602482015260448082018490528251808303909101815260649091019091526020810180517bffffffffffffffffffffffffffffffffffffffffffffffffffffffff167fa9059cbb00000000000000000000000000000000000000000000000000000000179052610f17908490613382565b600080546001600160a01b0383811673ffffffffffffffffffffffffffffffffffffffff19831681178455604051919092169283917f8be0079c531659141344cd1fd0a4f28419497f9722a3daafe3b4186f6b6457e09190a35050565b60008060018484604001518560000151866020015160405160008152602001604052604051612f83949392919093845260ff9290921660208401526040830152606082015260800190565b6020604051602081039080840390855afa158015612fa5573d6000803e3d6000fd5b5050604051601f1901519150506001600160a01b0381166130085760405162461bcd60e51b815260206004820152601860248201527f45434453413a20696e76616c6964207369676e617475726500000000000000006044820152606401610c7a565b601b546001600160a01b039081169116149392505050565b816001600160a01b0316836001600160a01b031614156130825760405162461bcd60e51b815260206004820152601960248201527f4552433732313a20617070726f766520746f2063616c6c6572000000000000006044820152606401610c7a565b6001600160a01b03838116600081815260066020908152604080832094871680845294825291829020805460ff191686151590811790915591519182527f17307eab39ab6107e8899845ad3d59bd9653f200f220920489ca2b5937696c31910160405180910390a3505050565b6130fa848484612c5e565b61310684848484613467565b6122755760405162461bcd60e51b815260206004820152603260248201527f4552433732313a207472616e7366657220746f206e6f6e20455243373231526560448201527f63656976657220696d706c656d656e74657200000000000000000000000000006064820152608401610c7a565b606060178054610cc190613e66565b6060816131c757505060408051808201909152600181527f3000000000000000000000000000000000000000000000000000000000000000602082015290565b8160005b81156131f157806131db81613f05565b91506131ea9050600a83614029565b91506131cb565b60008167ffffffffffffffff81111561320c5761320c613bfd565b6040519080825280601f01601f191660200182016040528015613236576020820181803683370190505b5090505b8415612a365761324b600183613eb7565b9150613258600a8661403d565b613263906030613ece565b60f81b81838151811061327857613278613f39565b60200101907effffffffffffffffffffffffffffffffffffffffffffffffffffffffffffff1916908160001a9053506132b2600a86614029565b945061323a565b6132c38383613605565b6132d06000848484613467565b610f175760405162461bcd60e51b815260206004820152603260248201527f4552433732313a207472616e7366657220746f206e6f6e20455243373231526560448201527f63656976657220696d706c656d656e74657200000000000000000000000000006064820152608401610c7a565b61334b81613754565b6000818152600760205260409020805461336490613e66565b15905061144a57600081815260076020526040812061144a9161398b565b60006133d7826040518060400160405280602081526020017f5361666545524332303a206c6f772d6c6576656c2063616c6c206661696c6564815250856001600160a01b03166137fc9092919063ffffffff16565b805190915015610f1757808060200190518101906133f59190614051565b610f175760405162461bcd60e51b815260206004820152602a60248201527f5361666545524332303a204552433230206f7065726174696f6e20646964206e60448201527f6f742073756363656564000000000000000000000000000000000000000000006064820152608401610c7a565b60006001600160a01b0384163b156135fa576040517f150b7a020000000000000000000000000000000000000000000000000000000081526001600160a01b0385169063150b7a02906134c490339089908890889060040161406e565b6020604051808303816000875af19250505080156134ff575060408051601f3d908101601f191682019092526134fc918101906140aa565b60015b6135af573d80801561352d576040519150601f19603f3d011682016040523d82523d6000602084013e613532565b606091505b5080516135a75760405162461bcd60e51b815260206004820152603260248201527f4552433732313a207472616e7366657220746f206e6f6e20455243373231526560448201527f63656976657220696d706c656d656e74657200000000000000000000000000006064820152608401610c7a565b805181602001fd5b7fffffffff00000000000000000000000000000000000000000000000000000000167f150b7a0200000000000000000000000000000000000000000000000000000000149050612a36565b506001949350505050565b6001600160a01b03821661365b5760405162461bcd60e51b815260206004820181905260248201527f4552433732313a206d696e7420746f20746865207a65726f20616464726573736044820152606401610c7a565b6000818152600360205260409020546001600160a01b0316156136c05760405162461bcd60e51b815260206004820152601c60248201527f4552433732313a20746f6b656e20616c7265616479206d696e746564000000006044820152606401610c7a565b6001600160a01b03821660009081526004602052604081208054600192906136e9908490613ece565b9091555050600081815260036020526040808220805473ffffffffffffffffffffffffffffffffffffffff19166001600160a01b03861690811790915590518392907fddf252ad1be2c89b69c2b068fc378daa952ba7f163c4a11628f55a4df523b3ef908290a45050565b600061375f82611a6d565b905061376c60008361297d565b6001600160a01b0381166000908152600460205260408120805460019290613795908490613eb7565b9091555050600082815260036020526040808220805473ffffffffffffffffffffffffffffffffffffffff19169055518391906001600160a01b038416907fddf252ad1be2c89b69c2b068fc378daa952ba7f163c4a11628f55a4df523b3ef908390a45050565b6060612a36848460008585843b6138555760405162461bcd60e51b815260206004820152601d60248201527f416464726573733a2063616c6c20746f206e6f6e2d636f6e74726163740000006044820152606401610c7a565b600080866001600160a01b0316858760405161387191906140c7565b60006040518083038185875af1925050503d80600081146138ae576040519150601f19603f3d011682016040523d82523d6000602084013e6138b3565b606091505b50915091506138c38282866138ce565b979650505050505050565b606083156138dd575081612498565b8251156138ed5782518084602001fd5b8160405162461bcd60e51b8152600401610c7a9190613aab565b82805461391390613e66565b90600052602060002090601f016020900481019282613935576000855561397b565b82601f1061394e57805160ff191683800117855561397b565b8280016001018555821561397b579182015b8281111561397b578251825591602001919060010190613960565b506139879291506139c1565b5090565b50805461399790613e66565b6000825580601f106139a7575050565b601f01602090049060005260206000209081019061144a91905b5b8082111561398757600081556001016139c2565b7fffffffff000000000000000000000000000000000000000000000000000000008116811461144a57600080fd5b600060208284031215613a1657600080fd5b8135612498816139d6565b6001600160a01b038116811461144a57600080fd5b600060208284031215613a4857600080fd5b813561249881613a21565b60005b83811015613a6e578181015183820152602001613a56565b838111156122755750506000910152565b60008151808452613a97816020860160208601613a53565b601f01601f19169290920160200192915050565b6020815260006124986020830184613a7f565b600060208284031215613ad057600080fd5b5035919050565b60008060408385031215613aea57600080fd5b8235613af581613a21565b946020939093013593505050565b600080600060608486031215613b1857600080fd5b8335613b2381613a21565b92506020840135613b3381613a21565b929592945050506040919091013590565b801515811461144a57600080fd5b600080600080600080600060e0888a031215613b6d57600080fd5b873596506020880135955060408801359450606088013593506080880135613b9481613b44565b925060a0880135613ba481613b44565b915060c0880135613bb481613b44565b8091505092959891949750929550565b60008060408385031215613bd757600080fd5b8235613be281613a21565b91506020830135613bf281613a21565b809150509250929050565b634e487b7160e01b600052604160045260246000fd5b600067ffffffffffffffff80841115613c2e57613c2e613bfd565b604051601f8501601f19908116603f01168101908282118183101715613c5657613c56613bfd565b81604052809350858152868686011115613c6f57600080fd5b858560208301376000602087830101525050509392505050565b600060208284031215613c9b57600080fd5b813567ffffffffffffffff811115613cb257600080fd5b8201601f81018413613cc357600080fd5b612a3684823560208401613c13565b803560ff81168114613ce357600080fd5b919050565b600080600083850360a0811215613cfe57600080fd5b613d0785613cd2565b9350613d1560208601613cd2565b925060607fffffffffffffffffffffffffffffffffffffffffffffffffffffffffffffffc082011215613d4757600080fd5b506040516060810181811067ffffffffffffffff82111715613d6b57613d6b613bfd565b6040908152850135815260608501356020820152613d8b60808601613cd2565b6040820152809150509250925092565b60008060408385031215613dae57600080fd5b8235613db981613a21565b91506020830135613bf281613b44565b60008060008060808587031215613ddf57600080fd5b8435613dea81613a21565b93506020850135613dfa81613a21565b925060408501359150606085013567ffffffffffffffff811115613e1d57600080fd5b8501601f81018713613e2e57600080fd5b613e3d87823560208401613c13565b91505092959194509250565b600060208284031215613e5b57600080fd5b813561249881613b44565b600181811c90821680613e7a57607f821691505b60208210811415613e9b57634e487b7160e01b600052602260045260246000fd5b50919050565b634e487b7160e01b600052601160045260246000fd5b600082821015613ec957613ec9613ea1565b500390565b60008219821115613ee157613ee1613ea1565b500190565b6000816000190483118215151615613f0057613f00613ea1565b500290565b6000600019821415613f1957613f19613ea1565b5060010190565b600060208284031215613f3257600080fd5b5051919050565b634e487b7160e01b600052603260045260246000fd5b600084516020613f628285838a01613a53565b855191840191613f758184848a01613a53565b8554920191600090600181811c9080831680613f9257607f831692505b858310811415613fb057634e487b7160e01b85526022600452602485fd5b808015613fc45760018114613fd557614002565b60ff19851688528388019550614002565b60008b81526020902060005b85811015613ffa5781548a820152908401908801613fe1565b505083880195505b50939b9a5050505050505050505050565b634e487b7160e01b600052601260045260246000fd5b60008261403857614038614013565b500490565b60008261404c5761404c614013565b500690565b60006020828403121561406357600080fd5b815161249881613b44565b60006001600160a01b038087168352808616602084015250836040830152608060608301526140a06080830184613a7f565b9695505050505050565b6000602082840312156140bc57600080fd5b8151612498816139d6565b600082516140d9818460208701613a53565b919091019291505056fea26469706673582212203a4bc473b7a221c9b85f68a8771afc00c8e0d8e1fa3332f19a63cf0b0265900e64736f6c634300080b00334552433732313a207472616e7366657220746f206e6f6e204552433732315265",
  "linkReferences": {},
  "deployedLinkReferences": {}
}